{
  "contractName": "SolarProjects",
  "abi": [
    {
      "inputs": [],
      "payable": false,
      "stateMutability": "nonpayable",
      "type": "constructor"
    },
    {
      "constant": false,
      "inputs": [
        {
          "name": "id",
          "type": "uint16"
        },
        {
          "name": "name",
          "type": "string"
        },
        {
          "name": "initialCoins",
          "type": "uint256"
        }
      ],
      "name": "createNewProject",
      "outputs": [],
      "payable": false,
      "stateMutability": "nonpayable",
      "type": "function"
    },
    {
      "constant": true,
      "inputs": [
        {
          "name": "id",
          "type": "uint16"
        }
      ],
      "name": "getProjectById",
      "outputs": [
        {
          "name": "",
          "type": "string"
        },
        {
          "name": "",
          "type": "uint256"
        }
      ],
      "payable": false,
      "stateMutability": "view",
      "type": "function"
    },
    {
      "constant": true,
      "inputs": [],
      "name": "getBalance",
      "outputs": [
        {
          "name": "",
          "type": "uint256"
        }
      ],
      "payable": false,
      "stateMutability": "pure",
      "type": "function"
    }
  ],
  "bytecode": "0x6060604052341561000f57600080fd5b336000806101000a81548173ffffffffffffffffffffffffffffffffffffffff021916908373ffffffffffffffffffffffffffffffffffffffff1602179055506104a68061005e6000396000f300606060405260043610610057576000357c0100000000000000000000000000000000000000000000000000000000900463ffffffff16806312065fe01461005c5780632ce7901c1461008557806394eb290f1461012c575b600080fd5b341561006757600080fd5b61006f61019f565b6040518082815260200191505060405180910390f35b341561009057600080fd5b6100aa600480803561ffff169060200190919050506101a8565b6040518080602001838152602001828103825284818151815260200191508051906020019080838360005b838110156100f05780820151818401526020810190506100d5565b50505050905090810190601f16801561011d5780820380516001836020036101000a031916815260200191505b50935050505060405180910390f35b341561013757600080fd5b61019d600480803561ffff1690602001909190803590602001908201803590602001908080601f0160208091040260200160405190810160405280939291908181526020018383808284378201915050505050509190803590602001909190505061028c565b005b60006001905090565b6101b06103c1565b6000600260008461ffff168152602001908152602001600020600101600260008561ffff16815260200190815260200160002060020154818054600181600116156101000203166002900480601f01602080910402602001604051908101604052809291908181526020018280546001816001161561010002031660029004801561027c5780601f106102515761010080835404028352916020019161027c565b820191906000526020600020905b81548152906001019060200180831161025f57829003601f168201915b5050505050915091509150915091565b6060604051908101604052808461ffff16815260200183815260200182815250600160003373ffffffffffffffffffffffffffffffffffffffff1673ffffffffffffffffffffffffffffffffffffffff16815260200190815260200160002060008201518160000160006101000a81548161ffff021916908361ffff160217905550602082015181600101908051906020019061032a9291906103d5565b50604082015181600201559050506060604051908101604052808461ffff16815260200183815260200182815250600260008561ffff16815260200190815260200160002060008201518160000160006101000a81548161ffff021916908361ffff16021790555060208201518160010190805190602001906103ae9291906103d5565b5060408201518160020155905050505050565b602060405190810160405280600081525090565b828054600181600116156101000203166002900490600052602060002090601f016020900481019282601f1061041657805160ff1916838001178555610444565b82800160010185558215610444579182015b82811115610443578251825591602001919060010190610428565b5b5090506104519190610455565b5090565b61047791905b8082111561047357600081600090555060010161045b565b5090565b905600a165627a7a72305820d9e1276fcec1599404c6d1be71b5be406fac747f21f98760a708dca03bdcb8340029",
  "source": "pragma solidity ^0.4.18;\r\n\r\ncontract SolarProjects {\r\n    address private owner;\r\n    \r\n    struct SolarProject {\r\n        uint16 id;\r\n        string name;\r\n        uint256 initialCoins;\r\n    }\r\n    \r\n    mapping(address => SolarProject) projects;\r\n    mapping(uint256 => SolarProject) projectIds;\r\n    \r\n    function SolarProjects() public {\r\n        owner = msg.sender;\r\n    }\r\n    \r\n    modifier onlyOwner() {\r\n        require(msg.sender == owner);\r\n        _;\r\n    }\r\n    \r\n    function createNewProject(uint16 id, string name,uint256 initialCoins) public {\r\n        projects[msg.sender] = SolarProject(id, name, initialCoins);\r\n        projectIds[id] = SolarProject(id, name, initialCoins);\r\n    }\r\n    \r\n    function getProjectById(uint16 id) public view returns(string, uint256) {\r\n        return (projectIds[id].name, projectIds[id].initialCoins);\r\n    }\r\n\r\n    function getBalance() public pure returns(uint256) {\r\n        return 1;\r\n    }\r\n}",
  "sourcePath": "Z:\\blockchain\\Solar-project\\contracts\\SolarProjects.sol",
  "compiler": {
    "name": "solc",
    "version": "0.4.19+commit.c4cbbb05.Emscripten.clang"
  },
  "schemaVersion": "1.0.1",
  "updatedAt": "2018-04-16T14:54:57.169Z"
}